:100000000C9451030C9421050C94FA040C9479037C
:100010000C9479030C9479030C9479030C94790370
:100020000C9479030C9479030C9479030C94790360
:100030000C9479030C9479030C9479030C94790350
:100040000C94B30B0C9479030C946E050C94480536
:100050000C9479030C9479030C9479030C94790330
:100060000C9479030C947903C2117911F2111F12C7
:10007000140E140E230E230E2E0E3D0E1F121F12F1
:100080001F121F121F121F121F12A811B5117E0E70
:100090008B0E640E710E590E4C0E980EA50E6C113F
:1000A000B40EBD0E0A1013101C1025102E103710A0
:1000B0004010491052105B109410B40E611156118B
:1000C0004B11E410B00FB90FC20FCB0FD40FDD0FDF
:1000D000E60FEF0FF80F011064107C10241194103C
:1000E000E4101F123C11C60ECF0ED80EE10EEA0E20
:1000F000F30EFC0E050F0E0F170F200F290F320FF6
:100100003B0F440F4D0F560F5F0F680F710F7A0FA3
:10011000830F8C0F950F9E0FA70FAC10FC10C4100F
:10012000D4100C111F121F121F121F121F121F12A8
:100130001F121F121F121F121F121F1208121F124E
:100140001F121F121F121F121F121F121F121F1227
:100150001F121F121F121F121F121F121F121F1217
:100160001F121F121F121F121F121F121F121F1207
:100170001F121F121F121F121F12FC105A5820505C
:10018000532F32204B6579626F61726420636F6E0A
:1001900074726F6C6C65722076312E33620052453A
:1001A000494E495420434F4E54524F4C4C455220D7
:1001B000284354522B414C542B4241434B53504102
:1001C0004345293A200048205245534554202841B0
:1001D0004C542B4354524C2B44454C293A2000524A
:1001E000455345542028463132293A20004D414795
:1001F00049434B20285053435231293A200054554B
:1002000052424F20285343524F4C4C204C4F434BAB
:10021000293A200043532B3420285047444E293A92
:10022000200043532B33202850475550293A2000B3
:100230006C6564733A20004353202843415053298E
:100240003A200043532B492028544142293A2000A8
:1002500053532B4B20282B293A200053532B4A2051
:10026000282D293A200053532B4220282A293A20AE
:100270000053532B582F53532B41202841434345C0
:100280004E54293A200053532B4A2F53532B3020DE
:10029000284D494E55532F5F293A200053532B4C7C
:1002A0002F53532B4B2028455155414C53293A206D
:1002B0000053532B442F53532B5320284241434B7D
:1002C00020534C415348293A200053532B562F5367
:1002D000532B432028534C415348293A2000535371
:1002E0002B552F53532B4720285220425241434B2A
:1002F0004554293A200053532B592F53532B462052
:10030000284C20425241434B4554293A2000535334
:100310002B302F53532B5A202853454D49434F4CD4
:100320004F4E293A200053532B4D2F53532B54201B
:1003300028504552494F44293A200053532B4E2F01
:1003400053532B522028434F4D4D41293A200053FF
:10035000532B502F53532B37202851554F54452999
:100360003A20004B5020393A20004B5020383A2098
:10037000004B5020373A20004B5020363A20004B9B
:100380005020353A20004B5020343A20004B50206A
:10039000333A20004B5020323A20004B5020313A63
:1003A00020004B5020303A2000393A2000383A20C3
:1003B00000373A2000363A2000353A2000343A20FF
:1003C00000333A2000323A2000313A2000303A20FF
:1003D000005A3A2000593A2000583A2000573A2053
:1003E00000563A2000553A2000543A2000533A2053
:1003F00000523A2000513A2000503A20004F3A2053
:10040000004E3A20004D3A20004C3A20004B3A2052
:10041000004A3A2000493A2000483A2000473A2052
:1004200000463A2000453A2000443A2000433A2052
:1004300000423A2000413A200053504143453A20BF
:1004400000454E5445523A200043532B3020284259
:1004500041434B5350414345293A200043532B53CA
:10046000504143452028455343293A2000524947EB
:1004700048543A20004C4546543A2000444F574EC9
:100480003A200055503A200053532B412028494E22
:1004900053455254293A200053532B4320284445B6
:1004A0004C455445293A200053532B4353202841AF
:1004B0004C545F52293A200053532B435320284178
:1004C0004C545F4C293A200053533A200043533A8E
:1004D00020004C6564733A20004E554D204C4F432C
:1004E0004B20494E20424C4F434B212000313238A3
:1004F0002F31303234205350454349414C2028504D
:10050000415553452F4252414B45293A20000000A6
:10051000000023002600290000000000240027001E
:100520002A0000000000250028002B000404040419
:10053000040404040202020202020303030303038D
:10054000010204081020408001020408102001026A
:100550000408102000000008000201000003040746
:1005600000000000000000004040202008040202BB
:1005700077017E025803120659071408110A8410E5
:10058000761B661C0D1D5A1E291F702069217222C0
:100590007A236B24732574266C2775287D29712A8C
:1005A000792C7B2D7C2E0F3F453016311E322633A1
:1005B00025342E3536363D373E384639523A413BA2
:1005C0004E3C493D4A3E0E401C41324221432344A9
:1005D00024452B463447334843493B4A424B4B4C16
:1005E0003A4D314E444F4D5015512D521B532C5402
:1005F0003C552A561D57225835591A5A4C5B5D5C9A
:10060000545D5B5E555F618B0561066204630C643B
:1006100003650B6683670A680169096A786B076C72
:10062000086D106E186F2070287130723873407426
:100630004875507657775F786D60519113926A9341
:1006400064946795F296F197639862995FA012BBE4
:100650007C041409110B1F0C270D2F0E7E0F6C113B
:1006600069127D137A146B15741675177218701948
:10067000711A5A2B4A2F4D79157A3B7B347C237D96
:10068000327E217F508048812B82408310843A85BE
:100690003886308728882089188A378C3F8D5E906D
:1006A000AE1211241FBECFEFD8E0DEBFCDBF11E0E8
:1006B000A0E0B1E0ECE4F6E202C005900D92AC32AD
:1006C000B107D9F722E0ACE2B1E001C01D92AA3433
:1006D000B207E1F713E0C1E5D3E004C02197FE01C2
:1006E0000E941913C035D107C9F70E94FD0B0C9465
:1006F00024130C9400000895CF92DF92EF92FF92A2
:100700000F931F93CF93DF936C017A018B01C0E0AD
:10071000D0E0CE15DF0581F0D8016D918D01D601B5
:10072000ED91FC910190F081E02DC6010995892B96
:1007300011F02196EECF7E01C701DF91CF911F917D
:100740000F91FF90EF90DF90CF900895089580E093
:1007500090E00895FC01538D448D252F30E0842FC7
:1007600090E0821B930B541710F0CF9608950197D9
:100770000895FC01918D828D981761F0828DDF01C3
:10078000A80FB11D5D968C91928D9F5F9F73928F84
:1007900090E008958FEF9FEF0895FC01918D828D79
:1007A000981731F0828DE80FF11D858D90E0089546
:1007B0008FEF9FEF0895FC01918D228D892F90E09E
:1007C000805C9F4F821B91098F739927089580EA5F
:1007D00091E00E94DB0321E0892B09F420E0822FC5
:1007E0000895FC01848DDF01A80FB11DA35ABF4FEE
:1007F0002C91848D90E001968F739927848FA68920
:10080000B7892C93A089B1898C91837080648C9373
:10081000938D848D981306C00288F389E02D808122
:100820008F7D80830895EF92FF920F931F93CF9354
:10083000DF93EC0181E0888F9B8D8C8D981305C030
:10084000E889F989808185FD26C0F62E0B8D10E0A0
:100850000F5F1F4F0F731127E02E8C8DE8120CC015
:100860000FB607FCFACFE889F989808185FFF5CFBB
:10087000CE010E94F103F1CF8B8DFE01E80FF11D37
:10088000E35AFF4FF0829FB7F8940B8FEA89FB89F8
:10089000808180620AC09FB7F894EE89FF896083E7
:1008A000E889F98980818370806480839FBF81E0BB
:1008B00090E0DF91CF911F910F91FF90EF900895FD
:1008C000CF93DF93EC01888D8823C9F0EA89FB89F7
:1008D000808185FD05C0A889B9898C9186FD0FC0EE
:1008E0000FB607FCF5CF808185FFF2CFA889B989C3
:1008F0008C9185FFEDCFCE010E94F103E7CFDF9110
:10090000CF91089580E090E0892B29F00E94E703C1
:1009100081110C94000008950E941F1380937201AE
:100920008093710110927A01109270018091790187
:10093000806C8093790180917C0187FD04C0809157
:100940007C0180FD4AC080912C01823009F44FC0A7
:10095000833059F4E998E1E0F0E0EE0FFF1FE0503A
:10096000FF4F8BE793E09183808361E080912D01BD
:100970000E940E0B61E080912D010E943D0B61E011
:1009800080912C010E940E0B61E080912C010E944D
:100990003D0B83E290E00197F1F760E080912C013C
:1009A0000E940E0B8BEE90E00197F1F760E08091D2
:1009B0002D010E940E0B62E080912C010E943D0BE4
:1009C00080912C01823021F0833021F08FEF03C021
:1009D00080E001C081E00C94370980917B01809315
:1009E0006F0180917901806180937901ACCFE898A3
:1009F000E0E0B2CF1F920F920FB60F9211242F9307
:100A00003F934F935F936F937F938F939F93AF9396
:100A1000BF93EF93FF93E0910201F09103010995D9
:100A2000FF91EF91BF91AF919F918F917F916F91C6
:100A30005F914F913F912F910F900FBE0F901F909C
:100A400018951F920F920FB60F9211242F933F9378
:100A50004F935F936F937F938F939F93AF93BF93C6
:100A6000EF93FF93E0910001F09101010995FF914F
:100A7000EF91BF91AF919F918F917F916F915F9116
:100A80004F913F912F910F900FBE0F901F9018958F
:100A90001F920F920FB60F9211242F933F934F93F3
:100AA0005F936F937F938F939F93AF93BF93EF93D6
:100AB000FF9380EA91E00E94F103FF91EF91BF91D3
:100AC000AF919F918F917F916F915F914F913F91E6
:100AD0002F910F900FBE0F901F9018951F920F929D
:100AE0000FB60F9211242F938F939F93EF93FF9341
:100AF000E091B001F091B1018081E091B601F091F7
:100B0000B70182FD12C090818091B9018F5F8F7310
:100B10002091BA01821751F0E091B901F0E0E0565E
:100B2000FE4F958F8093B90101C08081FF91EF91B5
:100B30009F918F912F910F900FBE0F901F9018953E
:100B40000F931F93CF938C01611102C0C4E101C0C8
:100B5000CAE0C8010E94E112C81739F06C2FC80121
:100B6000CF911F910F910C94E912CF911F910F918A
:100B700008950F931F93CF93DF938C01C62F0E948C
:100B8000E1128A3011F0843129F461E08A3089F071
:100B900060E00FC0C11102C0D4E101C0DAE0C801B9
:100BA0000E94E112D81721F06D2FC8010E94E912AE
:100BB0006C2F862FDF91CF911F910F910895EEE258
:100BC000F1E09F012E5231402817390714F4119299
:100BD000F8CF0895CF92DF92EF92FF921F93CF93B9
:100BE000DF9310E0D0E0C12CD12C7601C394212FEB
:100BF00080E090E0C0E02C32A8F4E22FF0E0E25D6B
:100C0000FE4F3081B701A601082E04C0440F551FC6
:100C1000661F771F0A94D2F7332311F0C42B02C04A
:100C20004095C42301962F5F8830910521F7DF5F3F
:100C300090913D0280913E029CBD8DBD60E08AE0B6
:100C40000E940E0BDEBD00000DB407FEFDCF8EB579
:100C5000CEBD00000DB407FEFDCF8EB561E08AE089
:100C60000E940E0B185FD63009F0C1CFDF91CF91F3
:100C70001F91FF90EF90DF90CF900895CF93DF9377
:100C8000CEE2D1E081E088A70E94EA0580E291E00F
:100C90000E945C0A86E191E00E945C0A68EC70E0C8
:100CA00080E090E00E94790B18A60E94EA0564EFAC
:100CB00071E080E090E00E94790B88E290E0DF91A3
:100CC000CF910C94DF05FF920F931F93CF93DF9387
:100CD000C82F88E290E00E94DF050E94EA0564E1E7
:100CE00070E080E090E00E94790B0EE211E0FF24BA
:100CF000F394F801F0820E94EA0564E170E080E07C
:100D000090E00E94790BF801F7860E94EA0564E101
:100D100070E080E090E00E94790BF80117860E9455
:100D2000EA0564E170E080E090E00E94790BD0E099
:100D3000C25DDE4FF8820E94EA0564E170E080E067
:100D400090E00E94790BF801108218820E94EA0557
:100D500064E170E080E090E0DF91CF911F910F910E
:100D6000FF900C94790B10927E0110927D011092ED
:100D70007C0110927B0110929401109293011092C9
:100D80007A0110929E0110929F01109279010895AC
:100D900090917E019F5F963008F090E020917D0158
:100DA000921751F0E92FF0E0ED58FE4F80839093B9
:100DB0007E0181E090E008958CEF9FEF089590917F
:100DC0007D0180917E019817A9F180917C0181605D
:100DD00080937C0180917C0187FD2FC080917901F7
:100DE00087FD2BC010927B014FEF5FEF9F5F963026
:100DF00008F090E0292F30E0F901ED58FE4F4F3F09
:100E00008FEF580719F4408150E008C080818B3B78
:100E100059F480917B018F5F80937B0190937D01DA
:100E200080917E019813E2CF842F0E948E0481E08E
:100E300090E008958EEF9FEF08958AE79FEF089561
:100E40008DEE0E94C8068BEB0E94C80680919F0120
:100E50000E94C8068BEB0E94C806892B11F00C94E7
:100E6000DF060895CF92DF92EF92FF920F931F93C8
:100E7000CF93DF938091790186FF66C080917A01DC
:100E80008F5F80937A0180917A018A3038F48230C2
:100E900058F4813009F0AAC160E01DC08B3039F1EF
:100EA000B0F08C3089F1A2C1C0917201C1706C2F79
:100EB00080912D010E940E0B80917001C80FC0938C
:100EC00070018091720190E095958795B6C0609110
:100ED00070016095617080912D01DF91CF911F911C
:100EE0000F91FF90EF90DF90CF900C940E0B62E08B
:100EF00080912D01DF91CF911F910F91FF90EF9085
:100F0000DF90CF900C943D0B809171018E3E29F0C3
:100F1000809171018E3F09F06CC1809179018F7BC6
:100F20008093790180917C0187FF04C080917C01CE
:100F30008F7703C080917C018E7F80937C018091AC
:100F4000790184FD53C150C120912D0130E0F90198
:100F5000EC5AFA4F8491F901E05CFA4FD491F9010F
:100F6000E45DFA4FC491CC2379F081110E94E50A27
:100F7000EC2FF0E0EE0FFF1FE25FFA4FA591B49166
:100F8000EC91ED2381E009F480E09FB7F894409163
:100F90007F015091800160918101709182019FBF1A
:100FA00000916B0110916C0120916D0130916E01E7
:100FB0006A017B01C01AD10AE20AF30A970186018D
:100FC0000B3F11052105310520F010927A01109296
:100FD000720140936B0150936C0160936D017093AB
:100FE0006E0190917A019F5F90937A0190917A01BE
:100FF0009A3068F4923080F4913009F0F7C0109282
:1010000070018091790180688093790102C19A30E2
:10101000B9F09B3011F1EAC090917001980F909354
:1010200070012091720130E035952795209372016F
:10103000811180E890917201892B80937201E9C03F
:10104000909170019170909370019091700189134B
:10105000E0C08DEF80937001DCC0809170018D3F06
:1010600010F08EEFA9C0909172019E3F29F08091FF
:1010700079018D7F809379018091790184FF03C08C
:10108000903F08F467C020917901822F847022FD7F
:101090005FC09E3EB9F160F49A3AF1F118F49923D9
:1010A000C9F058C0903E09F44AC0913EC1F152C007
:1010B0009C3F01F150F4903F09F04CC091E09093B7
:1010C0006F0190917901906240C09E3F39F09F3F3F
:1010D00009F040C00E94B3068CE03FC090917901B6
:1010E000892F827091FF39C080916A0180937101CC
:1010F00080E133C010926F011092790110927C014F
:101100008EE02BC08091790181FF26C080916A0119
:101110008E3E09F078C020C010926F011DC09091E2
:10112000790192FD1AC097E090936F019091790137
:10113000946090937901909179019F7D06C091E030
:1011400090936F019091790198609093790105C017
:1011500082E003C086E001C084E081FF05C0909179
:101160006F01915090936F0190916F01191614F4D3
:1011700082FF1EC0909194019F5F983008F047C095
:10118000209193012917A1F0E92FF0E0209172013D
:1011900030E0EE0FFF1FED57FE4F3183208340916B
:1011A000790120813181342B318320839093940104
:1011B000807151F0809171010E948E0480917C01B8
:1011C000806880937C0112C080916F01181674F0C2
:1011D00080917901837C8093790110926F018091D5
:1011E00079018F77809379010E94DF0610927A014E
:1011F00010C08091710180936A01809179018260B1
:10120000809379018ACE9093710184E1A6CF90E01A
:10121000B7CFDF91CF911F910F91FF90EF90DF90AB
:10122000CF9008953FB7F894809141029091420287
:10123000A0914302B091440226B5A89B05C02F3F60
:1012400019F00196A11DB11D3FBFBA2FA92F982FEC
:101250008827820F911DA11DB11DBC01CD0142E067
:10126000660F771F881F991F4A95D1F7089582301E
:10127000D8F4E82FF0E0EE0FFF1FE050FF4F22E31D
:1012800037E031832083813041F0809169008C7F89
:10129000826080936900E89A089580916900837F55
:1012A000886080936900E99A0895982F9F709093C1
:1012B0009F0190919E019F7E82FD02C080E001C04F
:1012C00080E1892B80939E010C9420070F931F933C
:1012D000CF93DF931091490280919D01181B17FD58
:1012E0001C5F01E013300CF0E1C080919401A091EB
:1012F00093018A1B87FD885F882309F4D7C08091FA
:101300009401A81709F4D2C0AF5FA83008F0A0E09C
:10131000A0939301B0E0AA0FBB1FAD57BE4FCD9174
:10132000DC9111978D919C9192FDA4C02C2FCA3A0B
:1013300020F08C2F815F823010F494FF02C0DD27F3
:1013400096C080919E0195FF02C0806801C08F7792
:1013500080939E0193FF13C0EEE4F6E0C0E0D0E07E
:101360008491281306C0CC0FDD1FFE01E15BF94F0D
:1013700012C021963296C932D10591F773C0E0E7C9
:10138000F5E0C0E0D0E0849128130AC0CC0FDD1F47
:10139000FE01EF58FA4FC491D0E0209739F464C0B1
:1013A00021963296CF36D10571F75CC080919E01AF
:1013B000FE01C430D10598F5EB5BFD4F87FF02C0FD
:1013C00010823DC090819130D1F10083C230D105AF
:1013D00071F0C330D10511F082E00AC084FF02C071
:1013E0008F7E01C0806180939E0184E001C081E016
:1013F00020919F01922F982361F0982F9095892F2B
:10140000822380939F0180919E01806880939E013A
:1014100003C0822B80939F010E94200712C0369741
:10142000E830F10570F4E859FA4FE49187FF03C002
:10143000E0958E2301C08E2B80939E0102C0CBEBE2
:10144000D0E080919E019E01205231092134310566
:1014500028F0CB38D10511F0816001C08E7F8093D8
:101460009E0102C0C0E0D0E080919E01D82B209761
:1014700019F41CC0C6E0D0E0CE0199278B3B910542
:1014800009F430CF892B09F42DCF809149028F5F69
:1014900084300CF080E0E82FEE0FFF0BEB56FE4F90
:1014A000D183C083809349021F5F1CCF812FDF91BE
:1014B000CF911F910F910895009769F0FC01019061
:1014C0000020E9F73197AF01481B590BBC0180EAB6
:1014D00091E00C947C0380E090E008958F929F92BD
:1014E000AF92BF920F931F93CF93DF93CDB7DEB729
:1014F000A1970FB6F894DEBF0FBECDBF19A2423040
:1015000008F44AE08E010F5D1F4F842E912CA12C10
:10151000B12CA50194010E94F712E62FB901CA016E
:1015200001501109EA3014F4E05D01C0E95CD80112
:10153000EC93232B242B252B61F7C8010E945C0A16
:10154000A1960FB6F894DEBF0FBECDBFDF91CF914D
:101550001F910F91BF90AF909F908F900895CF9360
:10156000DF93AB01682F4115510529F480EA91E022
:101570000E94130405C070E080E090E00E946E0AB3
:10158000EC0186E191E00E945C0A8C0F9D1FDF91C7
:10159000CF9108950F931F93CF93DF938C01C0E0F9
:1015A000D0E0F801EC0FFD1F6491662341F080EA62
:1015B00091E00E941304892B11F02196F2CFCE0105
:1015C000DF91CF911F910F910895833081F028F41E
:1015D000813099F08230A1F008958730A9F08830E9
:1015E000B9F08430D1F4809180008F7D03C0809168
:1015F00080008F7780938000089584B58F7702C034
:1016000084B58F7D84BD08958091B0008F7703C02D
:101610008091B0008F7D8093B00008951F93CF9389
:10162000DF93282F30E0F901EC5AFA4F8491F90149
:10163000E05CFA4FD491F901E45DFA4FC491CC23F8
:10164000C1F0162F81110E94E50AEC2FF0E0EE0F99
:10165000FF1FEE5DFA4FA591B4919FB7F894111159
:1016600004C08C91D095D82302C0EC91DE2BDC9382
:101670009FBFDF91CF911F910895CF93DF9390E0AB
:10168000FC01E05CFA4F2491FC01E45DFA4F849187
:10169000882361F190E0880F991FFC01E85EFA4F02
:1016A000C591D491FC01EE5DFA4FA591B491611101
:1016B00009C09FB7F8948881209582238883EC9194
:1016C0002E230BC0623061F49FB7F8948881322FCB
:1016D000309583238883EC912E2B2C939FBF06C0DB
:1016E0008FB7F894E8812E2B28838FBFDF91CF919D
:1016F00008958F929F92AF92BF92CF92DF92EF9216
:10170000FF926B017C010E9412094B015C01C11424
:10171000D104E104F104F1F00E941209DC01CB01D3
:1017200088199909AA09BB09883E9340A105B1050A
:1017300070F321E0C21AD108E108F10888EE880EA2
:1017400083E0981EA11CB11CC114D104E104F10472
:1017500019F7DDCFFF90EF90DF90CF90BF90AF9063
:101760009F908F9008951F920F920FB60F921124A1
:101770002F933F938F939F93AF93BF9380917F015C
:1017800090918001A0918101B0918201309140023D
:1017900023E0230F2D3720F40196A11DB11D05C0B4
:1017A00026E8230F0296A11DB11D209340028093CD
:1017B0007F0190938001A0938101B0938201809179
:1017C000410290914202A0914302B09144020196DD
:1017D000A11DB11D8093410290934202A093430248
:1017E000B0934402BF91AF919F918F913F912F9100
:1017F0000F900FBE0F901F901895789484B582605B
:1018000084BD84B5816084BD85B5826085BD85B5A4
:10181000816085BD80916E00816080936E00109222
:10182000810080918100826080938100809181009D
:10183000816080938100809180008160809380002E
:101840008091B10084608093B1008091B00081608C
:101850008093B00080917A00846080937A008091B8
:101860007A00826080937A0080917A008160809310
:101870007A0080917A00806880937A001092C1008B
:10188000E091B001F091B10182E08083E091AC0180
:10189000F091AD011082E091AE01F091AF0180E1D5
:1018A00080831092B801E091B401F091B50186E017
:1018B0008083E091B201F091B301808180618083E7
:1018C000E091B201F091B301808188608083E09162
:1018D000B201F091B301808180688083E091B20110
:1018E000F091B30180818F7D808380EA91E00E9436
:1018F0006004CFB7F89480915A01811127C0E6E3C4
:10190000F5E08491EAE4F5E09491E82FF0E0EE0F41
:10191000FF1FE85EFA4FA591B491EC91E92321F401
:1019200061E08AE00E940E0B61E08AE00E943D0BBC
:101930008CB580618CBD8CB580648CBD61E08DE020
:101940000E943D0B61E08BE00E943D0B80915A01AB
:101950008F5F80935A01CFBF61E08AE00E943D0B08
:1019600061E08AE00E940E0B61E08EE00E943D0B78
:1019700061E08FE00E943D0B61E080E10E943D0B41
:1019800061E081E10E943D0B61E08EE00E940E0B60
:1019900061E08FE00E940E0B60E080E10E940E0B80
:1019A00060E081E10E940E0B62E083E00E943D0B4B
:1019B00062E082E00E943D0B8CE290E00E94DF0535
:1019C0006091640180E10E940E0B6091630181E1EE
:1019D0000E940E0B8CE791E00E94CA0A86E191E01A
:1019E0000E945C0A0E94B30682E080932D0183E08E
:1019F00080932C0162E00E943D0B62E082E00E9435
:101A00003D0B81E00E9437098FEF0E94C8068BEBE7
:101A10000E94C8068BEB0E94C806892B11F00E9419
:101A2000DF0610929F0110929E0164E670E080E054
:101A300090E00E94790B8EEE0E94C8068BEB0E940C
:101A4000C806892B11F00E94DF0666E070E080E096
:101A500090E00E94790B6091640180E090E00E9428
:101A6000B905809364016091630181E090E00E9478
:101A7000B905C82F80936301D091640180916501FD
:101A8000DD2311F0816001C08E7F8093650180911C
:101A90006501CC2311F0826001C08D7F80936501C8
:101AA000809165010E94550981E08D27809357013F
:101AB000C09359010E943E0660E08FE00E940E0B29
:101AC0008FB7F894C0907F01D0908001E0908101A1
:101AD000F09082018FBF0E946609882309F412C525
:101AE0000E946609882381F0E0919D01EF5FE43058
:101AF00008F0E0E0E0939D01F0E0EE0FFF1FEB56F1
:101B0000FE4F0081118102C000E010E05801BB24AB
:101B1000A114B10409F4F6C4C0926601D092670121
:101B2000E0926801F092690161E08FE00E940E0B83
:101B30002EEEA216B10421F08AEAA816B10421F40F
:101B4000809165010E9455090630110589F5609163
:101B5000630181E068276093630181E090E00E9467
:101B6000A00590916301909359018091650199239B
:101B700011F0826001C08D7F8093650180916501C5
:101B80000E9455098DEE94E00E94CA0A40E166E089
:101B900070E080E090E00E946E0A86E191E00E9491
:101BA0005C0A62E070E0809165010E94AF0A2DC07E
:101BB000C8019F7E813021E0920719F08130914861
:101BC00099F4C09165018C2F0E94550989ED94E02C
:101BD0000E94CA0A82ED94E00E94CA0A62E070E0A4
:101BE0008C2F0E94AF0A8EC417FF0FC08091620134
:101BF00081110BC081E08093620189E191E00E9434
:101C00005C0A86E191E00E945C0AC02F109261019B
:101C100010926001F5013297EA38F10508F00FC41F
:101C2000EC5CFF4F0C9419130630110509F407C43E
:101C30009091620181E0892780932E0180935F015A
:101C40008DEC94E0F5C39091620181E08927809347
:101C50003D0180935E0188EC94E0EAC390916201BB
:101C600081E0892780933D0180932E0180935D015F
:101C70008093600188EB94E0DBC39091620181E086
:101C8000892780933D0180932E0180935D0180938D
:101C9000600188EA94E0CCC39091620181E08927D9
:101CA00080933D018093460180935C0188E994E034
:101CB000BFC39091620181E0892780933D018093A9
:101CC0002F0188E894E0B4C39091620181E08927F4
:101CD00080932E0180934A018093600183E894E011
:101CE000A7C39091620181E0892780932E018093A0
:101CF0005201809360018CE794E09AC39091620155
:101D000081E0892780932E018093510180936001A7
:101D100085E794E08DC39091620181E089278093EB
:101D20002E0180934201809360018DE694E080C390
:101D30009091620181E0892780932E018093350183
:101D4000809360018CE594E073C39091620181E01F
:101D5000892780932E0180933201809360018093C4
:101D60005B0189E494E064C39091620181E089277A
:101D70008093340181E494E05BC39091620181E03F
:101D800089278093350189E394E052C390916201E1
:101D900081E0892780932F0185E394E049C39091E6
:101DA000620181E089278093550181E394E040C37B
:101DB0009091620181E08927809346018DE294E051
:101DC00037C39091620181E0892780933F0189E2C6
:101DD00094E02EC39091620181E0892780934001B5
:101DE00085E294E025C39091620181E08927809388
:101DF000470181E294E01CC39091620181E0892750
:101E000080934F018DE194E013C39091620181E0D2
:101E100089278093540189E194E00AC3909162017B
:101E200081E089278093430185E194E001C390918B
:101E3000620181E0892780934C0181E194E0F8C23E
:101E40009091620181E08927809344018DE094E0C4
:101E5000EFC29091620181E0892780933C0189E083
:101E600094E0E6C29091620181E089278093450168
:101E700085E094E0DDC29091620181E08927809342
:101E80004D0181E094E0D4C29091620181E0892704
:101E900080933B018DEF93E0CBC29091620181E092
:101EA00089278093330189EF93E0C2C29091620148
:101EB00081E089278093300185EF93E0B9C290914A
:101EC000620181E089278093480181EF93E0B0C2ED
:101ED0009091620181E08927809337018DEE93E034
:101EE000A7C29091620181E089278093500189EE19
:101EF00093E09EC29091620181E0892780934B011B
:101F000085EE93E095C29091620181E089278093EC
:101F10004E0181EE93E08CC29091620181E08927AD
:101F2000809338018DED93E083C29091620181E04E
:101F3000892780933E0189ED93E07AC290916201F6
:101F400081E089278093530185ED93E071C29091E0
:101F5000620181E089278093360181ED93E068C2B8
:101F60009091620181E08927809332018DEC93E0AA
:101F70005FC29091620181E089278093310189ECF1
:101F800093E056C29091620181E0892780933901E4
:101F900085EC93E04DC29091620181E089278093A6
:101FA000410181EC93E044C29091620181E0892774
:101FB000809349018DEB93E03BC29091620181E0F7
:101FC00089278093510189EB93E032C2909162019D
:101FD00081E089278093520185EB93E029C290919B
:101FE000620181E0892780934A0181EB93E020C25E
:101FF0009091620181E08927809342018DEA93E00C
:1020000017C29091620181E0892780933A0189EAA1
:1020100093E00EC29091620181E0892780933201A2
:1020200082EA93E005C29091620181E08927809362
:1020300031018BE993E0FCC19091620181E0892735
:102040008093390184E993E0F3C19091620181E0CA
:102050008927809341018DE893E0EAC19091620164
:1020600081E089278093490186E893E0E1C190915E
:10207000620181E08927809351018FE793E0D8C105
:102080009091620181E089278093520188E793E073
:10209000CFC19091620181E0892780934A0181E755
:1020A00093E0C6C19091620181E08927809342014B
:1020B0008AE693E0BDC19091620181E08927809317
:1020C0003A0183E693E0B4C12091620181E02827C0
:1020D00020933D0130915F01332319F085E090E0BA
:1020E00002C08CE190E0FC01E25DFE4F2083309362
:1020F00061018FE493E09CC12091620181E0282777
:1021000020933D0130915F01332319F08AE190E083
:1021100002C08FE190E0FC01E25DFE4F208330932E
:1021200061018BE393E084C12091620181E0282763
:1021300020933D0130915F01332319F082E290E05A
:1021400002C087E190E0FC01E25DFE4F2083309306
:10215000610186E293E06CC12091620181E0282751
:1021600020933D0130915F01332319F088E090E026
:1021700002C08DE090E0FC01E25DFE4F20833093D1
:1021800061018EE093E054C180916201811109C028
:1021900080915F01882311F089E101C085E20E94EE
:1021A000630686EF92E044C180916201811109C00B
:1021B00080915F01882311F081E201C08DE10E94CE
:1021C00063068EED92E034C12091620181E0282700
:1021D00020933D0130915F01332319F088E190E0B5
:1021E00002C080E290E0FC01E25DFE4F208330936C
:1021F00061018AEC92E01CC180916201811109C0E9
:1022000080915F01882311F089E001C081E10E9483
:10221000630681EB92E00CC12091620181E02827E6
:1022200020933D0130915F01332319F086E190E066
:1022300002C08EE090E0FC01E25DFE4F208330930F
:1022400061018CE992E0F4C02091620181E02827CD
:1022500020933D0130915F01332319F084E090E039
:1022600002C08EE190E0FC01E25DFE4F20833093DE
:10227000610186E892E0DCC080915F01909162018B
:10228000882309F464C1911103C081E00E946306B0
:1022900081E792E0CDC09091620181E0892780932F
:1022A0003D018093550186E692E0C2C090916201A3
:1022B00081E0892780933D0180934C018BE592E07A
:1022C000B7C09091620181E0892780933D0180939E
:1022D000440180E592E0ACC09091620181E08927E1
:1022E00080932E01809343018093600183E492E008
:1022F0009FC09091620161E0192F162710932E0163
:102300001093600180916501911102C0846001C049
:102310008B7F80936501809165010E94550987E359
:1023200092E00E94CA0A612F70E080E090E04AE0EB
:102330000E946E0A86E191E00E945C0A60E170E012
:102340008C2F0E94AF0A80E392E00E94CA0A45C027
:102350009091620181E0892780932E018093410151
:102360008093600182E292E063C09091620181E01B
:10237000892780932E01809349018093600184E135
:1023800092E056C060916401D1E06D2760936401D2
:1023900080E090E00E94A00590916401D927D0933D
:1023A000570180916501992311F0816001C08E7FF2
:1023B00080936501809165010E9455098EEF91E03F
:1023C0000E94CA0AB801110F880B990B40E10E94C4
:1023D0006E0A86E191E00E945C0A62E070E0809102
:1023E00065012BC080916201882379F081E08093A0
:1023F00058010E94EA0564EF71E080E090E00E94DD
:10240000790B109258010E94EA058DEE91E010C000
:1024100080916201882399F010925E0110925D0113
:1024200010925C0110925F010E943E068FED91E0D8
:102430000E94CA0A60E170E08C2F0E94AF0A80916E
:102440006101882331F080916001811102C01092F6
:102450002E0180915E018823F9F080915D0188232F
:10246000D9F080915C018823B9F010925E0110923E
:102470005D0110925C0110925F0110926101109257
:1024800060010E943E0686EC91E00E94CA0A60E16B
:1024900070E08C2F0E94AF0A80915E01882381F149
:1024A00080915D01882361F180915B01882341F176
:1024B00010925E0110925D0110925B0110925F011B
:1024C000109261011092600188E290E00E94DF05A5
:1024D00081E0809356010E94EA0564EF71E080E09C
:1024E00090E00E94790B109256010E94EA058EE955
:1024F00091E00E94CA0A60E170E08C2F0E94AF0A4E
:10250000109262010E94EA05809166019091670134
:10251000A0916801B0916901C81AD90AEA0AFB0AB8
:1025200088ECC816D104E104F10470F060E08FE09B
:102530000E940E0B6091640180E10E940E0B60917D
:10254000630181E10E940E0B0E948204B9CA81E0FE
:10255000892780933D0180933E019ACEE0EAF1E025
:102560001382128288EE93E0A0E0B0E0848395832A
:10257000A683B78388E091E09183808385EC90E027
:102580009587848784EC90E09787868780EC90E03D
:10259000918B808B81EC90E0938B828B82EC90E02E
:1025A000958B848B86EC90E0978B868B118E128EA8
:1025B000138E148EEDE3F2E080E5808381E0818369
:1025C0000895F999FECF92BD81BDF89A992780B5FB
:1025D0000895262FF999FECF1FBA92BD81BD20BD67
:1025E0000FB6F894FA9AF99A0FBE01960895A1E2EF
:1025F0001A2EAA1BBB1BFD010DC0AA1FBB1FEE1F7D
:10260000FF1FA217B307E407F50720F0A21BB30BC7
:10261000E40BF50B661F771F881F991F1A9469F743
:1026200060957095809590959B01AC01BD01CF019F
:102630000895EE0FFF1F0590F491E02D099481E0BD
:0C26400090E0F8940C942413F894FFCF61
:10264C007B037B030000000013047C03AA036004DB
:10265C00DB03B903CD030D0A00425245414B210067
:0C266C0052455345542053454E44210074
:107E0000112484B714BE81FFF0D085E080938100F7
:107E100082E08093C00088E18093C10086E0809377
:107E2000C20080E18093C4008EE0C9D0259A86E02C
:107E300020E33CEF91E0309385002093840096BBD3
:107E4000B09BFECF1D9AA8958150A9F7CC24DD24C4
:107E500088248394B5E0AB2EA1E19A2EF3E0BF2EE7
:107E6000A2D0813461F49FD0082FAFD0023811F036
:107E7000013811F484E001C083E08DD089C08234E0
:107E800011F484E103C0853419F485E0A6D080C0E4
:107E9000853579F488D0E82EFF2485D0082F10E0AE
:107EA000102F00270E291F29000F111F8ED06801E7
:107EB0006FC0863521F484E090D080E0DECF843638
:107EC00009F040C070D06FD0082F6DD080E0C81688
:107ED00080E7D80618F4F601B7BEE895C0E0D1E017
:107EE00062D089930C17E1F7F0E0CF16F0E7DF06D8
:107EF00018F0F601B7BEE89568D007B600FCFDCFD4
:107F0000A601A0E0B1E02C9130E011968C91119780
:107F100090E0982F8827822B932B1296FA010C0160
:107F200087BEE89511244E5F5F4FF1E0A038BF0790
:107F300051F7F601A7BEE89507B600FCFDCF97BE46
:107F4000E89526C08437B1F42ED02DD0F82E2BD052
:107F50003CD0F601EF2C8F010F5F1F4F84911BD097
:107F6000EA94F801C1F70894C11CD11CFA94CF0C13
:107F7000D11C0EC0853739F428D08EE10CD085E9AC
:107F80000AD08FE07ACF813511F488E018D01DD067
:107F900080E101D065CF982F8091C00085FFFCCF94
:107FA0009093C60008958091C00087FFFCCF809118
:107FB000C00084FD01C0A8958091C6000895E0E648
:107FC000F0E098E1908380830895EDDF803219F02E
:107FD00088E0F5DFFFCF84E1DECF1F93182FE3DFCA
:107FE0001150E9F7F2DF1F91089580E0E8DFEE27F6
:047FF000FF270994CA
:027FFE00040479
:0400000300007E007B
:00000001FF
