:020000040000FA
:100000000C9499010C94F7040C94D0040C94C10145
:100010000C94C1010C94C1010C94C1010C94C10158
:100020000C94C1010C94C1010C94C1010C94C10148
:100030000C94C1010C94C1010C94C1010C94C10138
:100040000C9486040C94C1010C9420020C94FA01C7
:100050000C94C1010C94C1010C94C1010C94C10118
:100060000C94C1010C94C1014F0EC10B6C0E8E0E8D
:10007000D10BD10BDE0BDE0BE70BE70B8E0E8E0EDA
:100080008E0E8E0E8E0E8E0E8E0E3D0E460E180CA1
:10009000210C040C0F0CFD0BF20B2A0C330C340E4C
:1000A000400C470CFE0C050D0C0D130D1A0D210D07
:1000B000280D2F0D360D3D0D680D400C2B0E220E18
:1000C000190EA80DFE0C050D0C0D130D1A0D210DAA
:1000D000280D2F0D360D3D0D440D560DDC0D680D10
:1000E000A80D8E0EF60D4E0C550C5A0C610C680CBA
:1000F0006F0C760C7D0C840C8B0C900C950C9C0C6E
:10010000A30CAA0CB10CB80CBF0CC60CCD0CD40CB3
:10011000DB0CE20CE90CF00CF70C7A0DBA0D8C0D2F
:100120009A0DCA0D8E0E8E0E8E0E8E0E8E0E8E0EA9
:100130008E0E8E0E8E0E8E0E8E0E8E0E800E8E0EED
:100140008E0E8E0E8E0E8E0E8E0E8E0E8E0E8E0ECF
:100150008E0E8E0E8E0E8E0E8E0E8E0E8E0E8E0EBF
:100160008E0E8E0E8E0E8E0E8E0E8E0E8E0E8E0EAF
:100170008E0E8E0E8E0E8E0E8E0EBA0D00000000AC
:10018000240027002A0001020408102040800102F8
:1001900004081020010204081020040404040404CC
:1001A00004040202020202020303030303035A5877
:1001B0002050532F32204B6579626F617264206347
:1001C0006F6E74726F6C6C65722076312E336200C4
:1001D0000000000023002600290000000000250088
:1001E00028002B00000000080002010000030407A3
:1001F000000000000000000040402020080402022F
:1002000077017E025803120659071408110A841058
:10021000761B661C0D1D5A1E291F70206921722233
:100220007A236B24732574266C2775287D29712AFF
:10023000792C7B2D7C2E0F3F453016311E32263314
:1002400025342E3536363D373E384639523A413B15
:100250004E3C493D4A3E0E401C413242214323441C
:1002600024452B463447334843493B4A424B4B4C89
:100270003A4D314E444F4D5015512D521B532C5475
:100280003C552A561D57225835591A5A4C5B5D5C0D
:10029000545D5B5E555F618B0561066204630C64AF
:1002A00003650B6683670A680169096A786B076CE6
:1002B000086D106E186F207028713072387340749A
:1002C0004875507657775F786D60519113926A93B5
:1002D00064946795F296F197639862995FA012BB58
:1002E0007C041409110B1F0C270D2F0E7E0F6C11AF
:1002F00069127D137A146B157416751772187019BC
:10030000711A5A2B4A2F4D79157A3B7B347C237D09
:10031000327E217F508048812B82408310843A8531
:100320003886308728882089188A378C3F8D5E90E0
:10033000120F11241FBECFEFD8E0DEBFCDBF11E0FA
:10034000A0E0B1E0E0EDFEE102C005900D92AA311F
:10035000B107D9F722E0AAE1B1E001C01D92A238AD
:10036000B207E1F711E0C9E9D1E004C02197FE012D
:100370000E945B0FC839D107C9F70E94BD090C94D0
:10038000660F0C940000CF92DF92EF92FF920F93D2
:100390001F93CF93DF936C017A018B01C0E0D0E013
:1003A000CE15DF0581F0D8016D918D01D601ED915B
:1003B000FC910190F081E02DC6010995892B11F087
:1003C0002196EECF7E01C701DF91CF911F910F9152
:1003D000FF90EF90DF90CF90089508950E94610FF5
:1003E0008DED91E00E94860221E0892B09F420E046
:1003F000822F08951F920F920FB60F9211242F9300
:100400003F934F935F936F937F938F939F93AF939C
:10041000BF93EF93FF938DED91E00E94EB02FF916C
:10042000EF91BF91AF919F918F917F916F915F916C
:100430004F913F912F910F900FBE0F901F901895E5
:100440001F920F920FB60F9211242F938F939F93A9
:10045000EF93FF93E091ED01F091EE018081E09147
:10046000F301F091F40182FD12C090818091F601B8
:100470008F5F8F732091F701821751F0E091F601A1
:10048000F0E0E352FE4F958F8093F60101C080812A
:10049000FF91EF919F918F912F910F900FBE0F9031
:1004A0001F90189580E090E00895FC01538D448DD5
:1004B000252F30E0842F90E0821B930B541710F00F
:1004C000CF96089501970895FC01918D828D98171C
:1004D00061F0828DDF01A80FB11D5D968C91928D28
:1004E0009F5F9F73928F90E008958FEF9FEF089525
:1004F000FC01918D828D981731F0828DE80FF11DEE
:10050000858D90E008958FEF9FEF0895FC01918D08
:10051000228D892F90E0805C9F4F821B91098F7301
:100520009927089580E090E0892B29F00E94F0013E
:1005300081110C9400000895833081F028F48130FB
:1005400099F08230A1F008958730A9F08830B9F091
:100550008430D1F4809180008F7D03C08091800031
:100560008F7780938000089584B58F7702C084B51B
:100570008F7D84BD08958091B0008F7703C08091F6
:10058000B0008F7D8093B00008953FB7F8948091BC
:10059000740190917501A0917601B091770126B513
:1005A000A89B05C02F3F19F00196A11DB11D3FBFAB
:1005B000BA2FA92F982F8827820F911DA11DB11D39
:1005C000BC01CD0142E0660F771F881F991F4A9535
:1005D000D1F708950895FC01848DDF01A80FB11DA6
:1005E000A35ABF4F2C91848D90E001968F73992769
:1005F000848FA689B7892C93A089B1898C91806456
:100600008C93938D848D981306C00288F389E02D16
:1006100080818F7D80830895EF92FF920F931F93C7
:10062000CF93DF93EC0181E0888F9B8D8C8D9813A5
:1006300005C0E889F989808185FD24C0F62E0B8DDF
:1006400010E00F5F1F4F0F731127E02E8C8DE81203
:100650000CC00FB607FCFACFE889F989808185FFC5
:10066000F5CFCE010E94EB02F1CF8B8DFE01E80F9A
:10067000F11DE35AFF4FF0820B8FEA89FB898081DD
:10068000806207C0EE89FF896083E889F9898081EB
:100690008064808381E090E0DF91CF911F910F9182
:1006A000FF90EF900895CF93DF93EC01888D88231E
:1006B000C9F0EA89FB89808185FD05C0A889B989CF
:1006C0008C9186FD0FC00FB607FCF5CF808185FFAA
:1006D000F2CFA889B9898C9185FFEDCFCE010E9418
:1006E000EB02E7CFDF91CF9108951F93CF93DF9374
:1006F000282F30E0F901EC51FE4F8491F901EA57BF
:10070000FE4FD491F901E656FE4FC491CC23C1F0BF
:10071000162F81110E949C02EC2FF0E0EE0FFF1FBC
:10072000E652FE4FA591B4919FB7F894111104C001
:100730008C91D095D82302C0EC91DE2BDC939FBF27
:10074000DF91CF911F910895CF93DF9390E0FC014B
:10075000EA57FE4F2491FC01E656FE4F8491882310
:1007600061F190E0880F991FFC01E458FE4FC5919C
:10077000D491FC01E652FE4FA591B491611109C0DC
:100780009FB7F8948881209582238883EC912E234B
:100790000BC0623061F49FB7F8948881322F309596
:1007A00083238883EC912E2B2C939FBF06C08FB799
:1007B000F894E8812E2B28838FBFDF91CF91089585
:1007C000809366018093650110926E01109264011E
:1007D00080916D01806C80936D018091700187FD27
:1007E00004C08091700180FD4AC080911A0182305E
:1007F00009F44FC0833059F4E998E1E0F0E0EE0FDE
:10080000FF1FE050FF4F8AEE92E09183808361E00A
:1008100080911B010E94750361E080911B010E9481
:10082000A40361E080911A010E94750361E0809148
:100830001A010E94A40383E290E00197F1F760E0BF
:1008400080911A010E9475038BEE90E00197F1F7F9
:1008500060E080911B010E94750362E080911A01A3
:100860000E94A40380911A01823021F0833021F08C
:100870008FEF03C080E001C081E00C949808809164
:100880006F018093630180916D01806180936D01A0
:10089000ACCFE898E0E0B2CF8F929F92AF92BF9238
:1008A000CF92DF92EF92FF926B017C010E94C50212
:1008B0004B015C01C114D104E104F104F1F00E9488
:1008C000C502DC01CB0188199909AA09BB09883E38
:1008D0009340A105B10570F321E0C21AD108E108E7
:1008E000F10888EE880E83E0981EA11CB11CC1148B
:1008F000D104E104F10419F7DDCFFF90EF90DF9010
:10090000CF90BF90AF909F908F9008951F920F92BD
:100910000FB60F9211242F933F938F939F93AF9312
:10092000BF9380911C0190911D01A0911E01B09177
:100930001F013091730123E0230F2D3720F401961E
:10094000A11DB11D05C026E8230F0296A11DB11DF2
:100950002093730180931C0190931D01A0931E01AD
:10096000B0931F018091740190917501A09176015F
:10097000B09177010196A11DB11D809374019093F0
:100980007501A0937601B0937701BF91AF919F91CC
:100990008F913F912F910F900FBE0F901F90189540
:1009A0001F920F920FB60F9211242F933F934F93E4
:1009B0005F936F937F938F939F93AF93BF93EF93C7
:1009C000FF93E0910201F09103010995FF91EF91EE
:1009D000BF91AF919F918F917F916F915F914F9157
:1009E0003F912F910F900FBE0F901F9018951F925F
:1009F0000F920FB60F9211242F933F934F935F9353
:100A00006F937F938F939F93AF93BF93EF93FF93D6
:100A1000E0910001F09101010995FF91EF91BF91E3
:100A2000AF919F918F917F916F915F914F913F9186
:100A30002F910F900FBE0F901F9018950F931F933B
:100A4000CF938C01611102C0C4E101C0CAE0C801AA
:100A50000E94450FC81739F06C2FC801CF911F9124
:100A60000F910C944D0FCF911F910F9108950F93FB
:100A70001F93CF93DF938C01C62F0E94450F8A30BE
:100A800011F0843129F461E08A3089F060E00FC010
:100A9000C11102C0D4E101C0DAE0C8010E94450FD3
:100AA000D81721F06D2FC8010E944D0F6C2F862F93
:100AB000DF91CF911F910F910895E1E2F1E09F0145
:100AC000215231402817390714F41192F8CF0895B4
:100AD000CF92DF92EF92FF921F93CF93DF9310E0BC
:100AE000D0E0C12CD12C7601C394212F80E090E07E
:100AF000C0E02C32A8F4E22FF0E0EF5DFE4F308131
:100B0000B701A601082E04C0440F551F661F771FAA
:100B10000A94D2F7332311F0C42B02C04095C423AA
:100B200001962F5F8830910521F7DF5F90917A025F
:100B300080917B029CBD8DBD60E08AE00E947503C0
:100B4000DEBD00000DB407FEFDCF8EB5CEBD0000AA
:100B50000DB407FEFDCF8EB561E08AE00E947503FB
:100B6000185FD63009F0C1CFDF91CF911F91FF9070
:100B7000EF90DF90CF900895809120018111109225
:100B8000210181E0809349010E94680568EC70E0D2
:100B900080E090E00E944C04109249010E94680598
:100BA00064EF71E080E090E00E944C0488E290E005
:100BB0000E945D0580912001882351F064E670E079
:100BC00080E090E00E944C04109221010C94680592
:100BD0000895FF920F931F93CF93DF93C82F88E25E
:100BE00090E00E945D050E94680564E170E080E08D
:100BF00090E00E944C0401E211E0FF24F394F8011C
:100C0000F0820E94680564E170E080E090E00E945C
:100C10004C04F801F7860E94680564E170E080E00A
:100C200090E00E944C04F80117860E94680564E178
:100C300070E080E090E00E944C04D0E0CF5DDE4F99
:100C4000F8820E94680564E170E080E090E00E9414
:100C50004C04F801108218820E94680564E170E07B
:100C600080E090E0DF91CF911F910F91FF900C9465
:100C70004C04109272011092710110927001109246
:100C80006F011092B9011092B80110926E0110928A
:100C9000DB011092DC0110926D01089590917201B8
:100CA0009F5F963008F090E020917101921751F00B
:100CB000E92FF0E0E959FE4F80839093720181E0C3
:100CC00090E008958CEF9FEF0895909171018091CD
:100CD00072019817A9F18091700181608093700171
:100CE0008091700187FD2FC080916D0187FD2BC021
:100CF00010926F014FEF5FEF9F5F963008F090E02A
:100D0000292F30E0F901E959FE4F4F3F8FEF580787
:100D100019F4408150E008C080818B3B59F48091E8
:100D20006F018F5F80936F019093710180917201C9
:100D30009813E2CF842F0E94E00381E090E00895B1
:100D40008EEF9FEF08958AE79FEF08958DEE0E9442
:100D50004E068BEB0E944E068091DC010E944E06EF
:100D60008BEB0E944E06892B11F00C9465060895BA
:100D7000CF92DF92EF92FF920F931F93CF93DF9367
:100D800080916D0186FF66C080916E018F5F8093B8
:100D90006E0180916E018A3038F4823058F48130CF
:100DA00009F0AAC160E01DC08B3039F1B0F08C3081
:100DB00089F1A2C1C0916601C1706C2F80911B01A5
:100DC0000E94750380916401C80FC09364018091F3
:100DD000660190E095958795B6C060916401609535
:100DE000617080911B01DF91CF911F910F91FF9056
:100DF000EF90DF90CF900C94750362E080911B011F
:100E0000DF91CF911F910F91FF90EF90DF90CF90E6
:100E10000C94A403809165018E3E29F080916501B8
:100E20008E3F09F06CC180916D018F7B80936D01C5
:100E30008091700187FF04C0809170018F7703C09B
:100E4000809170018E7F8093700180916D0184FD8F
:100E500053C150C120911B0130E0F901EC51FE4F0C
:100E60008491F901EA57FE4FD491F901E656FE4FFD
:100E7000C491CC2379F081110E949C02EC2FF0E008
:100E8000EE0FFF1FE053FE4FA591B491EC91ED23BF
:100E900081E009F480E09FB7F89440911C015091E3
:100EA0001D0160911E0170911F019FBF00915F01A4
:100EB0001091600120916101309162016A017B0112
:100EC000C01AD10AE20AF30A970186010B3F110505
:100ED0002105310520F010926E01109266014093B9
:100EE0005F01509360016093610170936201909182
:100EF0006E019F5F90936E0190916E019A3068F43D
:100F0000923080F4913009F0F7C010926401809122
:100F10006D01806880936D0102C19A30B9F09B30F9
:100F200011F1EAC090916401980F909364012091AF
:100F3000660130E03595279520936601811180E8A0
:100F400090916601892B80936601E9C090916401BC
:100F5000917090936401909164018913E0C08DEFCA
:100F600080936401DCC0809164018D3F10F08EEFAE
:100F7000A9C0909166019E3F29F080916D018D7FFF
:100F800080936D0180916D0184FF03C0903F08F450
:100F900067C020916D01822F847022FD5FC09E3E4C
:100FA000B9F160F49A3AF1F118F49923C9F058C0F4
:100FB000903E09F44AC0913EC1F152C09C3F01F1FC
:100FC00050F4903F09F04CC091E0909363019091F0
:100FD0006D01906240C09E3F39F09F3F09F040C0D4
:100FE0000E9439068CE03FC090916D01892F82707C
:100FF00091FF39C080915E018093650180E133C02B
:101000001092630110926D01109270018EE02BC05E
:1010100080916D0181FF26C080915E018E3E09F0B6
:1010200078C020C0109263011DC090916D0192FDA7
:101030001AC097E09093630190916D019460909332
:101040006D0190916D019F7D06C091E090936301C9
:1010500090916D01986090936D0105C082E003C08E
:1010600086E001C084E081FF05C09091630191504A
:101070009093630190916301191614F482FF1EC0CE
:101080009091B9019F5F903208F047C02091B8015C
:101090002917A1F0E92FF0E02091660130E0EE0F72
:1010A000FF1FE858FE4F3183208340916D0120815E
:1010B0003181342B318320839093B901807151F0B9
:1010C000809165010E94E0038091700180688093A7
:1010D000700112C080916301181674F080916D0147
:1010E000837C80936D011092630180916D018F77F5
:1010F00080936D010E94650610926E0110C0809170
:10110000650180935E0180916D01826080936D0125
:101110008ACE9093650184E1A6CF90E0B7CFDF91AE
:10112000CF911F910F91FF90EF90DF90CF90089596
:101130008230D8F4E82FF0E0EE0FFF1FE050FF4FB1
:1011400028EB36E031832083813041F080916900C3
:101150008C7F826080936900E89A0895809169008D
:10116000837F886080936900E99A0895982F9F7023
:101170009093DC019091DB019F7E82FD02C080E0B4
:1011800001C080E1892B8093DB010C94A6060F93AC
:101190001F93CF93DF93109181028091DA01181B86
:1011A00017FD105F01E01F300CF0E1C08091B90124
:1011B000A091B8018A1B87FD805E882309F4D7C0FF
:1011C0008091B901A81709F4D2C0AF5FA03208F02E
:1011D000A0E0A093B801B0E0AA0FBB1FA858BE4F73
:1011E000CD91DC9111978D919C9192FDA4C02C2FF3
:1011F000CA3A20F08C2F815F823010F494FF02C035
:10120000DD2796C08091DB0195FF02C0806801C098
:101210008F778093DB0193FF13C0EEEDF2E0C0E027
:10122000D0E08491281306C0CC0FDD1FFE01E152EF
:10123000FD4F12C021963296C932D10591F773C085
:10124000E0E0F2E0C0E0D0E0849128130AC0CC0FC7
:10125000DD1FFE01EF5FFD4FC491D0E0209739F410
:1012600064C021963296CF36D10571F75CC080916B
:10127000DB01FE01C430D10598F5E358FD4F87FF2F
:1012800002C010823DC090819130D1F10083C23004
:10129000D10571F0C330D10511F082E00AC084FF9E
:1012A00002C08F7E01C080618093DB0184E001C0B9
:1012B00081E02091DC01922F982361F0982F909586
:1012C000892F82238093DC018091DB0180688093E9
:1012D000DB0103C0822B8093DC010E94A60612C0B2
:1012E0003697E830F10570F4E850FE4FE49187FF3F
:1012F00003C0E0958E2301C08E2B8093DB0102C0DA
:10130000CBEBD0E08091DB019E01205231092134EA
:10131000310528F0CB38D10511F0816001C08E7FF6
:101320008093DB0102C0C0E0D0E08091DB01D82BCC
:10133000209719F41CC0C6E0D0E0CE0199278B3B62
:10134000910509F430CF892B09F42DCF80918102CA
:101350008F5F80310CF080E0E82FEE0FFF0BE6543A
:10136000FE4FD183C083809381021F5F1CCF812FEA
:10137000DF91CF911F910F910895789484B5826089
:1013800084BD84B5816084BD85B5826085BD85B529
:10139000816085BD80916E00816080936E001092A7
:1013A0008100809181008260809381008091810022
:1013B00081608093810080918000816080938000B3
:1013C0008091B10084608093B1008091B000816011
:1013D0008093B00080917A00846080937A0080913D
:1013E0007A00826080937A0080917A008160809395
:1013F0007A0080917A00806880937A001092C10010
:10140000E091ED01F091EE0182E08083E091E9014D
:10141000F091EA011082E091EB01F091EC0180E1A2
:1014200080831092F501E091F101F091F20186E0E4
:101430008083E091EF01F091F001808180618083F1
:10144000E091EF01F091F001808188608083E0916C
:10145000EF01F091F001808180688083E091EF01DD
:10146000F091F00180818F7D80838DED91E00E946D
:101470005303CFB7F89480914D01811127C0E4EA5E
:10148000F1E08491E0E9F1E09491E82FF0E0EE0FD3
:10149000FF1FE458FE4FA591B491EC91E92321F48C
:1014A00061E08AE00E94750361E08AE00E94A40383
:1014B0008CB580618CBD8CB580648CBD61E08DE0A5
:1014C0000E94A40361E08BE00E94A40380914D017F
:1014D0008F5F80934D01CFBF61E08AE00E94A4033B
:1014E00061E08AE00E94750361E08EE00E94A4033F
:1014F00061E08FE00E94A40361E080E10E94A40308
:1015000061E081E10E94A40361E08EE00E94750326
:1015100061E08FE00E94750360E080E10E94750346
:1015200060E081E10E94750362E083E00E94A40311
:1015300062E082E00E94A4038CE290E00E945D05DC
:101540006091580180E10E9475036091570181E12B
:101550000E9475030EEA11E0F8016491611128C040
:1015600042E050E066E171E08DED91E00E94C30140
:101570000E94390682E080931B0183E080931A0168
:1015800062E00E94A40362E082E00E94A40381E082
:101590000E9498088FEF0E944E068BEB0E944E0629
:1015A0008BEB0E944E06892B61F00E94650609C0F4
:1015B0008DED91E00E940C030F5F1F4F892B61F6A8
:1015C000CFCF1092DC011092DB0164E670E080E086
:1015D00090E00E944C048EEE0E944E068BEB0E941F
:1015E0004E06892B11F00E94650666E070E080E0EF
:1015F00090E00E944C046091580180E090E00E94CD
:101600003705809358016091570181E090E00E9476
:101610003705C82F809357011091580180915901C7
:10162000112311F0816001C08E7F80935901809158
:101630005901CC2311F0826001C08D7F8093590144
:10164000809159010E94B60881E0812780934A0168
:10165000C0934C010E94BC0560E08FE00E947503BE
:101660008FB7F894C0901C01D0901D01E0901E012E
:10167000F0901F018FBF0E94C708882309F4ADC3F3
:101680000E94C708882381F0E091DA01EF5FE03122
:1016900008F0E0E0E093DA01F0E0EE0FFF1FE6541F
:1016A000FE4F0081118102C000E010E05801BB2410
:1016B000A114B10409F491C3C0925A01D0925B0104
:1016C000E0925C01F0925D0161E08FE00E947503A1
:1016D000FEEEAF16B10421F02AEAA216B10421F4FD
:1016E000809159010E94B60806301105E1F460911D
:1016F000570181E068276093570181E090E00E94E4
:101700001E059091570190934C01809159019923A6
:1017100011F0826001C08D7F809359018091590141
:101720000E94B6080EC0C8019F7E8130E1E09E078E
:1017300019F08130914829F4809159010E94B6082E
:101740004CC3C0912001CC2319F081E0809321018A
:1017500017FF07C080915601811103C081E080937B
:101760005601109255011092540110925301F50147
:101770003297EA38F10508F0D1C2EC5CFF4F0C94C7
:101780005B0F9091560181E089278093210180931E
:10179000200180915901911102C0846096C28B7F13
:1017A00094C20630110509F4B9C29091560181E046
:1017B00089278093210180935201B0C290915601F4
:1017C00081E089278093300180935101A7C29091D5
:1017D000560181E089278093300180932101809315
:1017E00050011AC09091560181E089278093300101
:1017F0008093390180934F0191C29091560181E00D
:101800008927809330014EC09091560181E089274D
:101810008093210180933D01809354017FC2909178
:10182000560181E089278093210180934501F4CFFF
:101830009091560181E08927809321018093440192
:10184000EBCF9091560181E089278093210180930D
:101850003501E2CF9091560181E0892780932101E3
:1018600080932801D9CF9091560181E089278093F8
:101870002101809325018093540180934E014EC233
:101880009091560181E089278093270147C290916A
:10189000560181E089278093280140C2909156012A
:1018A00081E089278093220139C29091560181E01D
:1018B0008927C5C19091560181E08927809339011C
:1018C0002DC29091560181E089278093320126C272
:1018D0009091560181E08927809333011FC2909136
:1018E000560181E0892780933A0118C290915601F0
:1018F00081E089278093420111C29091560181E0D5
:101900008927809347010AC29091560181E0892777
:101910008093360103C29091560181E0892798C1D6
:101920009091560181E089279CC19091560181E0F8
:10193000892780932F01F2C19091560181E0892778
:1019400080933801EBC19091560181E08927809303
:101950004001E4C19091560181E0892780932E01D6
:10196000DDC19091560181E0892780932601D6C17F
:101970009091560181E0892780932301CFC19091F6
:10198000560181E0892780933B01C8C1909156019F
:1019900081E0892780932A01C1C19091560181E09D
:1019A000892780934301BAC19091560181E089272C
:1019B00080933E01B3C19091560181E089278093C5
:1019C0004101ACC19091560181E0892780932B01A0
:1019D000A5C19091560181E08927809331019EC174
:1019E0009091560181E089278093460197C190919B
:1019F000560181E089278093290190C19091560179
:101A000081E089278093250189C19091560181E069
:101A100089278093240182C19091560181E0892712
:101A200080932C017BC19091560181E0892780939E
:101A3000340174C19091560181E0892780933C0163
:101A40006DC19091560181E089278093440166C160
:101A50009091560181E08927809345015FC1909163
:101A6000560181E0892780933D0158C1909156012C
:101A700081E089278093350151C19091560181E021
:101A8000892780932D014AC12091560181E02827A2
:101A90002093300130915201311102C0CC2319F052
:101AA00085E090E09AC08CE190E097C020915601CB
:101AB00081E028272093300130915201311102C07A
:101AC000CC2319F08AE190E088C08FE190E085C0D6
:101AD0002091560181E02827209330013091520156
:101AE000311102C0CC2319F082E290E076C087E188
:101AF00090E073C02091560181E0282720933001A7
:101B000030915201311102C0CC2319F088E090E0ED
:101B100064C08DE090E061C0809156018111FEC0EB
:101B200080915201811104C0C11102C085E22FC011
:101B300089E12DC0809156018111F0C08091520140
:101B4000811104C0C11102C08DE121C081E21FC01A
:101B50002091560181E028272093300130915201D5
:101B6000311102C0CC2319F088E190E036C080E248
:101B700090E033C0809156018111D0C08091520114
:101B8000811104C0C11102C081E101C089E00E943D
:101B9000E905C4C02091560181E028272093300137
:101BA00030915201311102C0CC2319F086E190E04E
:101BB00014C08EE090E011C02091560181E02827EA
:101BC0002093300130915201311102C0CC2319F021
:101BD00084E090E002C08EE190E0FC01EF5DFE4FFA
:101BE0002083C09353013093550198C01091520146
:101BF00011110DC0C1110BC09091560181E08927D0
:101C000080933001809331011093550187C08091FA
:101C10005601811109C0111102C0CC2311F081E0DD
:101C200001C080E10E94E905112331F3C11176C0A2
:101C3000E3CF9091560181E0892780933001809312
:101C400048016CC09091560181E089278093300152
:101C500080933F0163C09091560181E08927809372
:101C60003001809337015AC09091560181E0892755
:101C70008093210180933601CFCD9091560181E070
:101C800089278093210180933401C6CD909156011C
:101C900081E089278093210180933C01BDCD609133
:101CA0005801C1E06C276093580180E090E00E94E9
:101CB0001E0590915801C927C0934A01809159018E
:101CC000992311F0816001C08E7F8093590180912A
:101CD00059010E94B60822C0809156018823F1F074
:101CE00081E080934B010E94680564EF71E080E021
:101CF00090E00E944C0410924B010E9468050EC0B7
:101D000080915601882351F0109251011092500198
:101D100010924F01109252010E94BC058091550112
:101D2000882331F080915401811102C01092210169
:101D300080915301882331F080915601811102C0B6
:101D400010922101809151018823C1F080915001AE
:101D50008823A1F080914F01882381F010925101D6
:101D60001092500110924F011092520110925501A1
:101D700010925401109253010E94BC0580915101B0
:101D8000882349F180915001882329F180914E01E7
:101D9000882309F1109251011092500110924E01C6
:101DA0001092520110925501109254011092530159
:101DB00088E290E00E945D0581E0809349010E94E5
:101DC000680564EF71E080E090E00E944C0410929E
:101DD00049010E946805109256010E946805809191
:101DE0005A0190915B01A0915C01B0915D01C81A0C
:101DF000D90AEA0AFB0A28ECC216D104E104F1046C
:101E000070F060E08FE00E9475036091580180E1FE
:101E10000E9475036091570181E10E9475030E9441
:101E200092021ECCEDEDF1E01382128288EE93E077
:101E3000A0E0B0E084839583A683B78388E091E037
:101E40009183808385EC90E09587848784EC90E093
:101E50009787868780EC90E0918B808B81EC90E077
:101E6000938B828B82EC90E0958B848B86EC90E058
:101E7000978B868B118E128E138E148EEAE7F2E00A
:101E800080E5808381E081830895F999FECF92BD3A
:101E900081BDF89A992780B50895262FF999FECF2C
:101EA0001FBA92BD81BD20BD0FB6F894FA9AF99A77
:101EB0000FBE01960895EE0FFF1F0590F491E02DDF
:101EC000099481E090E0F8940C94660FF894FFCFA9
:101ED000EA02EA02000000000C03C30155025303AA
:0A1EE0008602640278020D0A000079
:107E0000112484B714BE81FFF0D085E080938100F7
:107E100082E08093C00088E18093C10086E0809377
:107E2000C20080E18093C4008EE0C9D0259A86E02C
:107E300020E33CEF91E0309385002093840096BBD3
:107E4000B09BFECF1D9AA8958150A9F7CC24DD24C4
:107E500088248394B5E0AB2EA1E19A2EF3E0BF2EE7
:107E6000A2D0813461F49FD0082FAFD0023811F036
:107E7000013811F484E001C083E08DD089C08234E0
:107E800011F484E103C0853419F485E0A6D080C0E4
:107E9000853579F488D0E82EFF2485D0082F10E0AE
:107EA000102F00270E291F29000F111F8ED06801E7
:107EB0006FC0863521F484E090D080E0DECF843638
:107EC00009F040C070D06FD0082F6DD080E0C81688
:107ED00080E7D80618F4F601B7BEE895C0E0D1E017
:107EE00062D089930C17E1F7F0E0CF16F0E7DF06D8
:107EF00018F0F601B7BEE89568D007B600FCFDCFD4
:107F0000A601A0E0B1E02C9130E011968C91119780
:107F100090E0982F8827822B932B1296FA010C0160
:107F200087BEE89511244E5F5F4FF1E0A038BF0790
:107F300051F7F601A7BEE89507B600FCFDCF97BE46
:107F4000E89526C08437B1F42ED02DD0F82E2BD052
:107F50003CD0F601EF2C8F010F5F1F4F84911BD097
:107F6000EA94F801C1F70894C11CD11CFA94CF0C13
:107F7000D11C0EC0853739F428D08EE10CD085E9AC
:107F80000AD08FE07ACF813511F488E018D01DD067
:107F900080E101D065CF982F8091C00085FFFCCF94
:107FA0009093C60008958091C00087FFFCCF809118
:107FB000C00084FD01C0A8958091C6000895E0E648
:107FC000F0E098E1908380830895EDDF803219F02E
:107FD00088E0F5DFFFCF84E1DECF1F93182FE3DFCA
:107FE0001150E9F7F2DF1F91089580E0E8DFEE27F6
:047FF000FF270994CA
:027FFE00040479
:00000001FF
